{
  "contractName": "Certificate",
  "abi": [
    {
      "constant": true,
      "inputs": [
        {
          "name": "",
          "type": "uint256"
        }
      ],
      "name": "documentList",
      "outputs": [
        {
          "name": "docId",
          "type": "uint256"
        },
        {
          "name": "userCertificated",
          "type": "address"
        },
        {
          "name": "userName",
          "type": "string"
        },
        {
          "name": "userLastNames",
          "type": "string"
        },
        {
          "name": "certifiedMatter",
          "type": "string"
        },
        {
          "name": "orgName",
          "type": "string"
        },
        {
          "name": "hashPhoto",
          "type": "string"
        }
      ],
      "payable": false,
      "stateMutability": "view",
      "type": "function"
    },
    {
      "constant": true,
      "inputs": [
        {
          "name": "",
          "type": "uint256"
        }
      ],
      "name": "certifiers",
      "outputs": [
        {
          "name": "certifierId",
          "type": "uint256"
        },
        {
          "name": "certifierAddres",
          "type": "address"
        },
        {
          "name": "orgName",
          "type": "string"
        }
      ],
      "payable": false,
      "stateMutability": "view",
      "type": "function"
    },
    {
      "constant": true,
      "inputs": [],
      "name": "rootUser",
      "outputs": [
        {
          "name": "",
          "type": "address"
        }
      ],
      "payable": false,
      "stateMutability": "view",
      "type": "function"
    },
    {
      "constant": true,
      "inputs": [
        {
          "name": "",
          "type": "uint256"
        }
      ],
      "name": "documents",
      "outputs": [
        {
          "name": "docId",
          "type": "uint256"
        },
        {
          "name": "userCertificated",
          "type": "address"
        },
        {
          "name": "userName",
          "type": "string"
        },
        {
          "name": "userLastNames",
          "type": "string"
        },
        {
          "name": "certifiedMatter",
          "type": "string"
        },
        {
          "name": "orgName",
          "type": "string"
        },
        {
          "name": "hashPhoto",
          "type": "string"
        }
      ],
      "payable": false,
      "stateMutability": "view",
      "type": "function"
    },
    {
      "constant": true,
      "inputs": [
        {
          "name": "",
          "type": "uint256"
        }
      ],
      "name": "certifiersList",
      "outputs": [
        {
          "name": "",
          "type": "address"
        }
      ],
      "payable": false,
      "stateMutability": "view",
      "type": "function"
    },
    {
      "constant": true,
      "inputs": [
        {
          "name": "",
          "type": "address"
        }
      ],
      "name": "certifierAdd",
      "outputs": [
        {
          "name": "certifierId",
          "type": "uint256"
        },
        {
          "name": "certifierAddres",
          "type": "address"
        },
        {
          "name": "orgName",
          "type": "string"
        }
      ],
      "payable": false,
      "stateMutability": "view",
      "type": "function"
    },
    {
      "inputs": [],
      "payable": false,
      "stateMutability": "nonpayable",
      "type": "constructor"
    },
    {
      "anonymous": false,
      "inputs": [
        {
          "indexed": false,
          "name": "certifierId",
          "type": "uint256"
        },
        {
          "indexed": false,
          "name": "certifierAddress",
          "type": "address"
        },
        {
          "indexed": false,
          "name": "_orgName",
          "type": "string"
        }
      ],
      "name": "NewCertifier",
      "type": "event"
    },
    {
      "anonymous": false,
      "inputs": [
        {
          "indexed": false,
          "name": "docId",
          "type": "uint256"
        },
        {
          "indexed": false,
          "name": "userCertificated",
          "type": "address"
        },
        {
          "indexed": false,
          "name": "userName",
          "type": "string"
        },
        {
          "indexed": false,
          "name": "userLastNames",
          "type": "string"
        },
        {
          "indexed": false,
          "name": "certifiedMatter",
          "type": "string"
        },
        {
          "indexed": false,
          "name": "orgName",
          "type": "string"
        },
        {
          "indexed": false,
          "name": "hashPhoto",
          "type": "string"
        }
      ],
      "name": "NewCertificated",
      "type": "event"
    },
    {
      "constant": false,
      "inputs": [
        {
          "name": "_certifierAddress",
          "type": "address"
        },
        {
          "name": "_orgName",
          "type": "string"
        }
      ],
      "name": "createCertifier",
      "outputs": [],
      "payable": false,
      "stateMutability": "nonpayable",
      "type": "function"
    },
    {
      "constant": false,
      "inputs": [
        {
          "name": "_userCertificated",
          "type": "address"
        },
        {
          "name": "_userName",
          "type": "string"
        },
        {
          "name": "_userLastNames",
          "type": "string"
        },
        {
          "name": "_certifiedMatter",
          "type": "string"
        },
        {
          "name": "_hashPhoto",
          "type": "string"
        }
      ],
      "name": "createDocument",
      "outputs": [],
      "payable": false,
      "stateMutability": "nonpayable",
      "type": "function"
    },
    {
      "constant": true,
      "inputs": [],
      "name": "getCertificates",
      "outputs": [
        {
          "components": [
            {
              "name": "docId",
              "type": "uint256"
            },
            {
              "name": "userCertificated",
              "type": "address"
            },
            {
              "name": "userName",
              "type": "string"
            },
            {
              "name": "userLastNames",
              "type": "string"
            },
            {
              "name": "certifiedMatter",
              "type": "string"
            },
            {
              "name": "orgName",
              "type": "string"
            },
            {
              "name": "hashPhoto",
              "type": "string"
            }
          ],
          "name": "",
          "type": "tuple[]"
        }
      ],
      "payable": false,
      "stateMutability": "view",
      "type": "function"
    },
    {
      "constant": true,
      "inputs": [
        {
          "name": "id",
          "type": "uint256"
        }
      ],
      "name": "getCertificate",
      "outputs": [
        {
          "name": "",
          "type": "uint256"
        },
        {
          "name": "",
          "type": "address"
        },
        {
          "name": "",
          "type": "string"
        }
      ],
      "payable": false,
      "stateMutability": "view",
      "type": "function"
    },
    {
      "constant": true,
      "inputs": [],
      "name": "onlyCertifier",
      "outputs": [],
      "payable": false,
      "stateMutability": "view",
      "type": "function"
    }
  ],
  "bytecode": "0x60806040526000600655600060075534801561001a57600080fd5b50336000806101000a81548173ffffffffffffffffffffffffffffffffffffffff021916908373ffffffffffffffffffffffffffffffffffffffff16021790555061215f8061006a6000396000f3fe608060405234801561001057600080fd5b50600436106100a95760003560e01c806399641aa11161007157806399641aa11461015a578063aa3763f71461018c578063c2ed2b05146101aa578063de7109e9146101e0578063ef4a9425146101fc578063f21307211461022c576100a9565b80630db71071146100ae5780631f5ddb4f146100ca5780633140c27d146100e857806351640fee1461011e578063991d3c3d14610150575b600080fd5b6100c860048036036100c391908101906118dc565b61025e565b005b6100d261045f565b6040516100df9190611d7f565b60405180910390f35b61010260048036036100fd9190810190611a07565b610848565b6040516101159796959493929190611f0f565b60405180910390f35b61013860048036036101339190810190611a07565b610baf565b60405161014793929190611e3f565b60405180910390f35b610158610d61565b005b610174600480360361016f9190810190611a07565b610e29565b60405161018393929190611e01565b60405180910390f35b610194610f0b565b6040516101a19190611d64565b60405180910390f35b6101c460048036036101bf9190810190611a07565b610f30565b6040516101d79796959493929190611f0f565b60405180910390f35b6101fa60048036036101f59190810190611930565b61128a565b005b61021660048036036102119190810190611a07565b611672565b6040516102239190611d64565b60405180910390f35b610246600480360361024191908101906118b3565b6116ae565b60405161025593929190611e01565b60405180910390f35b6000809054906101000a900473ffffffffffffffffffffffffffffffffffffffff1673ffffffffffffffffffffffffffffffffffffffff163373ffffffffffffffffffffffffffffffffffffffff16146102ed576040517f08c379a00000000000000000000000000000000000000000000000000000000081526004016102e490611de1565b60405180910390fd5b600660008154809291906001019190505550604051806060016040528060065481526020018373ffffffffffffffffffffffffffffffffffffffff168152602001828152506001600060065481526020019081526020016000206000820151816000015560208201518160010160006101000a81548173ffffffffffffffffffffffffffffffffffffffff021916908373ffffffffffffffffffffffffffffffffffffffff16021790555060408201518160020190805190602001906103b4929190611790565b5090505060048290806001815401808255809150509060018203906000526020600020016000909192909190916101000a81548173ffffffffffffffffffffffffffffffffffffffff021916908373ffffffffffffffffffffffffffffffffffffffff160217905550507f1265a3b409cba9df66f59757d97aea40cdb98a7f6319e0219aa290a04bc12e7c600654838360405161045393929190611e3f565b60405180910390a15050565b60606005805480602002602001604051908101604052809291908181526020016000905b8282101561083f57838290600052602060002090600702016040518060e0016040529081600082015481526020016001820160009054906101000a900473ffffffffffffffffffffffffffffffffffffffff1673ffffffffffffffffffffffffffffffffffffffff1673ffffffffffffffffffffffffffffffffffffffff168152602001600282018054600181600116156101000203166002900480601f01602080910402602001604051908101604052809291908181526020018280546001816001161561010002031660029004801561059f5780601f106105745761010080835404028352916020019161059f565b820191906000526020600020905b81548152906001019060200180831161058257829003601f168201915b50505050508152602001600382018054600181600116156101000203166002900480601f0160208091040260200160405190810160405280929190818152602001828054600181600116156101000203166002900480156106415780601f1061061657610100808354040283529160200191610641565b820191906000526020600020905b81548152906001019060200180831161062457829003601f168201915b50505050508152602001600482018054600181600116156101000203166002900480601f0160208091040260200160405190810160405280929190818152602001828054600181600116156101000203166002900480156106e35780601f106106b8576101008083540402835291602001916106e3565b820191906000526020600020905b8154815290600101906020018083116106c657829003601f168201915b50505050508152602001600582018054600181600116156101000203166002900480601f0160208091040260200160405190810160405280929190818152602001828054600181600116156101000203166002900480156107855780601f1061075a57610100808354040283529160200191610785565b820191906000526020600020905b81548152906001019060200180831161076857829003601f168201915b50505050508152602001600682018054600181600116156101000203166002900480601f0160208091040260200160405190810160405280929190818152602001828054600181600116156101000203166002900480156108275780601f106107fc57610100808354040283529160200191610827565b820191906000526020600020905b81548152906001019060200180831161080a57829003601f168201915b50505050508152505081526020019060010190610483565b50505050905090565b6005818154811061085557fe5b90600052602060002090600702016000915090508060000154908060010160009054906101000a900473ffffffffffffffffffffffffffffffffffffffff1690806002018054600181600116156101000203166002900480601f01602080910402602001604051908101604052809291908181526020018280546001816001161561010002031660029004801561092d5780601f106109025761010080835404028352916020019161092d565b820191906000526020600020905b81548152906001019060200180831161091057829003601f168201915b505050505090806003018054600181600116156101000203166002900480601f0160208091040260200160405190810160405280929190818152602001828054600181600116156101000203166002900480156109cb5780601f106109a0576101008083540402835291602001916109cb565b820191906000526020600020905b8154815290600101906020018083116109ae57829003601f168201915b505050505090806004018054600181600116156101000203166002900480601f016020809104026020016040519081016040528092919081815260200182805460018160011615610100020316600290048015610a695780601f10610a3e57610100808354040283529160200191610a69565b820191906000526020600020905b815481529060010190602001808311610a4c57829003601f168201915b505050505090806005018054600181600116156101000203166002900480601f016020809104026020016040519081016040528092919081815260200182805460018160011615610100020316600290048015610b075780601f10610adc57610100808354040283529160200191610b07565b820191906000526020600020905b815481529060010190602001808311610aea57829003601f168201915b505050505090806006018054600181600116156101000203166002900480601f016020809104026020016040519081016040528092919081815260200182805460018160011615610100020316600290048015610ba55780601f10610b7a57610100808354040283529160200191610ba5565b820191906000526020600020905b815481529060010190602001808311610b8857829003601f168201915b5050505050905087565b600080606060008090505b600580549050811015610d1e5760058181548110610bd457fe5b906000526020600020906007020160000154851415610d115760058181548110610bfa57fe5b90600052602060002090600702016000015460058281548110610c1957fe5b906000526020600020906007020160010160009054906101000a900473ffffffffffffffffffffffffffffffffffffffff1660058381548110610c5857fe5b9060005260206000209060070201600201808054600181600116156101000203166002900480601f016020809104026020016040519081016040528092919081815260200182805460018160011615610100020316600290048015610cfe5780601f10610cd357610100808354040283529160200191610cfe565b820191906000526020600020905b815481529060010190602001808311610ce157829003601f168201915b5050505050905093509350935050610d5a565b8080600101915050610bba565b506040517f08c379a0000000000000000000000000000000000000000000000000000000008152600401610d5190611dc1565b60405180910390fd5b9193909250565b60008090505b600480549050811015610e26573373ffffffffffffffffffffffffffffffffffffffff1660048281548110610d9857fe5b9060005260206000200160009054906101000a900473ffffffffffffffffffffffffffffffffffffffff1673ffffffffffffffffffffffffffffffffffffffff1614610e19576040517f08c379a0000000000000000000000000000000000000000000000000000000008152600401610e1090611da1565b60405180910390fd5b8080600101915050610d67565b50565b60016020528060005260406000206000915090508060000154908060010160009054906101000a900473ffffffffffffffffffffffffffffffffffffffff1690806002018054600181600116156101000203166002900480601f016020809104026020016040519081016040528092919081815260200182805460018160011615610100020316600290048015610f015780601f10610ed657610100808354040283529160200191610f01565b820191906000526020600020905b815481529060010190602001808311610ee457829003601f168201915b5050505050905083565b6000809054906101000a900473ffffffffffffffffffffffffffffffffffffffff1681565b60036020528060005260406000206000915090508060000154908060010160009054906101000a900473ffffffffffffffffffffffffffffffffffffffff1690806002018054600181600116156101000203166002900480601f0160208091040260200160405190810160405280929190818152602001828054600181600116156101000203166002900480156110085780601f10610fdd57610100808354040283529160200191611008565b820191906000526020600020905b815481529060010190602001808311610feb57829003601f168201915b505050505090806003018054600181600116156101000203166002900480601f0160208091040260200160405190810160405280929190818152602001828054600181600116156101000203166002900480156110a65780601f1061107b576101008083540402835291602001916110a6565b820191906000526020600020905b81548152906001019060200180831161108957829003601f168201915b505050505090806004018054600181600116156101000203166002900480601f0160208091040260200160405190810160405280929190818152602001828054600181600116156101000203166002900480156111445780601f1061111957610100808354040283529160200191611144565b820191906000526020600020905b81548152906001019060200180831161112757829003601f168201915b505050505090806005018054600181600116156101000203166002900480601f0160208091040260200160405190810160405280929190818152602001828054600181600116156101000203166002900480156111e25780601f106111b7576101008083540402835291602001916111e2565b820191906000526020600020905b8154815290600101906020018083116111c557829003601f168201915b505050505090806006018054600181600116156101000203166002900480601f0160208091040260200160405190810160405280929190818152602001828054600181600116156101000203166002900480156112805780601f1061125557610100808354040283529160200191611280565b820191906000526020600020905b81548152906001019060200180831161126357829003601f168201915b5050505050905087565b611292610d61565b6007600081548092919060010191905055506060600260003373ffffffffffffffffffffffffffffffffffffffff1673ffffffffffffffffffffffffffffffffffffffff1681526020019081526020016000206002018054600181600116156101000203166002900480601f01602080910402602001604051908101604052809291908181526020018280546001816001161561010002031660029004801561137c5780601f106113515761010080835404028352916020019161137c565b820191906000526020600020905b81548152906001019060200180831161135f57829003601f168201915b505050505090506040518060e0016040528060075481526020018773ffffffffffffffffffffffffffffffffffffffff168152602001868152602001858152602001848152602001828152602001838152506003600060075481526020019081526020016000206000820151816000015560208201518160010160006101000a81548173ffffffffffffffffffffffffffffffffffffffff021916908373ffffffffffffffffffffffffffffffffffffffff1602179055506040820151816002019080519060200190611450929190611790565b50606082015181600301908051906020019061146d929190611790565b50608082015181600401908051906020019061148a929190611790565b5060a08201518160050190805190602001906114a7929190611790565b5060c08201518160060190805190602001906114c4929190611790565b5090505060056040518060e0016040528060075481526020018873ffffffffffffffffffffffffffffffffffffffff16815260200187815260200186815260200185815260200183815260200184815250908060018154018082558091505090600182039060005260206000209060070201600090919290919091506000820151816000015560208201518160010160006101000a81548173ffffffffffffffffffffffffffffffffffffffff021916908373ffffffffffffffffffffffffffffffffffffffff16021790555060408201518160020190805190602001906115ad929190611790565b5060608201518160030190805190602001906115ca929190611790565b5060808201518160040190805190602001906115e7929190611790565b5060a0820151816005019080519060200190611604929190611790565b5060c0820151816006019080519060200190611621929190611790565b505050507f1883e0fc9e213238fc109b4ecfe1b35185011328a7d2204f2e2ab73a43b3723b6007548787878786886040516116629796959493929190611e7d565b60405180910390a1505050505050565b6004818154811061167f57fe5b906000526020600020016000915054906101000a900473ffffffffffffffffffffffffffffffffffffffff1681565b60026020528060005260406000206000915090508060000154908060010160009054906101000a900473ffffffffffffffffffffffffffffffffffffffff1690806002018054600181600116156101000203166002900480601f0160208091040260200160405190810160405280929190818152602001828054600181600116156101000203166002900480156117865780601f1061175b57610100808354040283529160200191611786565b820191906000526020600020905b81548152906001019060200180831161176957829003601f168201915b5050505050905083565b828054600181600116156101000203166002900490600052602060002090601f016020900481019282601f106117d157805160ff19168380011785556117ff565b828001600101855582156117ff579182015b828111156117fe5782518255916020019190600101906117e3565b5b50905061180c9190611810565b5090565b61183291905b8082111561182e576000816000905550600101611816565b5090565b90565b600081359050611844816120f7565b92915050565b600082601f83011261185b57600080fd5b813561186e61186982611fce565b611fa1565b9150808252602083016020830185838301111561188a57600080fd5b6118958382846120a4565b50505092915050565b6000813590506118ad8161210e565b92915050565b6000602082840312156118c557600080fd5b60006118d384828501611835565b91505092915050565b600080604083850312156118ef57600080fd5b60006118fd85828601611835565b925050602083013567ffffffffffffffff81111561191a57600080fd5b6119268582860161184a565b9150509250929050565b600080600080600060a0868803121561194857600080fd5b600061195688828901611835565b955050602086013567ffffffffffffffff81111561197357600080fd5b61197f8882890161184a565b945050604086013567ffffffffffffffff81111561199c57600080fd5b6119a88882890161184a565b935050606086013567ffffffffffffffff8111156119c557600080fd5b6119d18882890161184a565b925050608086013567ffffffffffffffff8111156119ee57600080fd5b6119fa8882890161184a565b9150509295509295909350565b600060208284031215611a1957600080fd5b6000611a278482850161189e565b91505092915050565b6000611a3c8383611c8e565b905092915050565b611a4d81612068565b82525050565b611a5c81612068565b82525050565b6000611a6d82612007565b611a778185612035565b935083602082028501611a8985611ffa565b8060005b85811015611ac55784840389528151611aa68582611a30565b9450611ab183612028565b925060208a01995050600181019050611a8d565b50829750879550505050505092915050565b6000611ae28261201d565b611aec8185612057565b9350611afc8185602086016120b3565b611b05816120e6565b840191505092915050565b6000611b1b82612012565b611b258185612046565b9350611b358185602086016120b3565b611b3e816120e6565b840191505092915050565b6000611b5482612012565b611b5e8185612057565b9350611b6e8185602086016120b3565b611b77816120e6565b840191505092915050565b6000611b8f603783612057565b91507f536f6c6f2070756564656e20637265617220436572746966696361646f73206c60008301527f6f73205573756172696f73206175746f72697a61646f730000000000000000006020830152604082019050919050565b6000611bf5601b83612057565b91507f4e6f20736520656e636f6e74726f20656c20646f63756d656e746f00000000006000830152602082019050919050565b6000611c35603383612057565b91507f536f6c6f20656c207573756172696f20526f6f7420707565646520726567697360008301527f7472617220436572746966696361646f726573000000000000000000000000006020830152604082019050919050565b600060e083016000830151611ca66000860182611d46565b506020830151611cb96020860182611a44565b5060408301518482036040860152611cd18282611b10565b91505060608301518482036060860152611ceb8282611b10565b91505060808301518482036080860152611d058282611b10565b91505060a083015184820360a0860152611d1f8282611b10565b91505060c083015184820360c0860152611d398282611b10565b9150508091505092915050565b611d4f8161209a565b82525050565b611d5e8161209a565b82525050565b6000602082019050611d796000830184611a53565b92915050565b60006020820190508181036000830152611d998184611a62565b905092915050565b60006020820190508181036000830152611dba81611b82565b9050919050565b60006020820190508181036000830152611dda81611be8565b9050919050565b60006020820190508181036000830152611dfa81611c28565b9050919050565b6000606082019050611e166000830186611d55565b611e236020830185611a53565b8181036040830152611e358184611b49565b9050949350505050565b6000606082019050611e546000830186611d55565b611e616020830185611a53565b8181036040830152611e738184611ad7565b9050949350505050565b600060e082019050611e92600083018a611d55565b611e9f6020830189611a53565b8181036040830152611eb18188611ad7565b90508181036060830152611ec58187611ad7565b90508181036080830152611ed98186611ad7565b905081810360a0830152611eed8185611ad7565b905081810360c0830152611f018184611ad7565b905098975050505050505050565b600060e082019050611f24600083018a611d55565b611f316020830189611a53565b8181036040830152611f438188611b49565b90508181036060830152611f578187611b49565b90508181036080830152611f6b8186611b49565b905081810360a0830152611f7f8185611b49565b905081810360c0830152611f938184611b49565b905098975050505050505050565b6000604051905081810181811067ffffffffffffffff82111715611fc457600080fd5b8060405250919050565b600067ffffffffffffffff821115611fe557600080fd5b601f19601f8301169050602081019050919050565b6000602082019050919050565b600081519050919050565b600081519050919050565b600081519050919050565b6000602082019050919050565b600082825260208201905092915050565b600082825260208201905092915050565b600082825260208201905092915050565b60006120738261207a565b9050919050565b600073ffffffffffffffffffffffffffffffffffffffff82169050919050565b6000819050919050565b82818337600083830152505050565b60005b838110156120d15780820151818401526020810190506120b6565b838111156120e0576000848401525b50505050565b6000601f19601f8301169050919050565b61210081612068565b811461210b57600080fd5b50565b6121178161209a565b811461212257600080fd5b5056fea265627a7a7230582087834baaf6d3256530690e7caae78745f8030fe9171d6fbdef6bed148e41e96e6c6578706572696d656e74616cf50037",
  "source": "pragma solidity >=0.5.0 <0.7.0;\npragma experimental ABIEncoderV2;\n\ncontract Certificate {\n    struct Certifier {\n        uint256 certifierId;\n        address certifierAddres;\n        string orgName;\n    }\n\n    struct Document {\n        uint256 docId;\n        address userCertificated;\n        string userName;\n        string userLastNames;\n        string certifiedMatter;\n        string orgName;\n        string hashPhoto;\n    }\n\n    event NewCertifier(\n        uint256 certifierId,\n        address certifierAddress,\n        string _orgName\n    );\n\n    event NewCertificated(\n        uint256 docId,\n        address userCertificated,\n        string userName,\n        string userLastNames,\n        string certifiedMatter,\n        string orgName,\n        string hashPhoto\n    );\n\n    address public rootUser;\n    mapping(uint256 => Certifier) public certifiers;\n    mapping(address => Certifier) public certifierAdd;\n    mapping(uint256 => Document) public documents;\n    address[] public certifiersList;\n    Document[] public documentList;\n    uint256 certifierCount = 0;\n    uint256 documentCount = 0;\n\n    constructor() public {\n        rootUser = msg.sender;\n    }\n\n    function createCertifier(address _certifierAddress, string memory _orgName)\n        public\n        onlyRootUser()\n    {\n        certifierCount++;\n        certifiers[certifierCount] = Certifier(\n            certifierCount,\n            _certifierAddress,\n            _orgName\n        );\n        certifiersList.push(_certifierAddress);\n        emit NewCertifier(certifierCount, _certifierAddress, _orgName);\n    }\n\n    function createDocument(\n        address _userCertificated,\n        string memory _userName,\n        string memory _userLastNames,\n        string memory _certifiedMatter,\n        string memory _hashPhoto\n    ) public {\n        onlyCertifier();\n        documentCount++;\n        string memory _orgName = certifierAdd[msg.sender].orgName;\n        documents[documentCount] = Document(\n            documentCount,\n            _userCertificated,\n            _userName,\n            _userLastNames,\n            _certifiedMatter,\n            _orgName,\n            _hashPhoto\n        );\n        documentList.push(\n            Document(\n                documentCount,\n                _userCertificated,\n                _userName,\n                _userLastNames,\n                _certifiedMatter,\n                _orgName,\n                _hashPhoto\n            )\n        );\n        emit NewCertificated(\n            documentCount,\n            _userCertificated,\n            _userName,\n            _userLastNames,\n            _certifiedMatter,\n            _orgName,\n            _hashPhoto\n        );\n    }\n\n    function getCertificates() public view returns (Document[] memory) {\n        return (documentList);\n    }\n\n    function getCertificate(uint256 id)\n        public\n        view\n        returns (\n            uint256,\n            address,\n            string memory\n        )\n    {\n        for (uint256 i = 0; i < documentList.length; i++) {\n            if (id == documentList[i].docId) {\n                return (\n                    documentList[i].docId,\n                    documentList[i].userCertificated,\n                    documentList[i].userName\n                );\n            }\n        }\n        revert(\"No se encontro el documento\");\n    }\n\n    modifier onlyRootUser() {\n        require(\n            msg.sender == rootUser,\n            \"Solo el usuario Root puede registrar Certificadores\"\n        );\n        _;\n    }\n\n    function onlyCertifier() public view {\n        for (uint256 i = 0; i < certifiersList.length; i++) {\n            if (certifiersList[i] != msg.sender) {\n                revert(\n                    \"Solo pueden crear Certificados los Usuarios autorizados\"\n                );\n            }\n        }\n    }\n}\n",
  "sourcePath": "/Users/federico/Desktop/bbvaHack/stonePaper/contracts/Certificate.sol",
  "compiler": {
    "name": "solc",
    "version": "0.5.8+commit.23d335f2.Emscripten.clang"
  },
  "schemaVersion": "3.0.15",
  "updatedAt": "2020-07-28T01:30:29.633Z",
  "devdoc": {
    "methods": {}
  },
  "userdoc": {
    "methods": {}
  }
}